{
  "address": "0x75782A57c6522B8B17FCc01Ff11759f4535b2752",
  "abi": [
    {
      "inputs": [
        {
          "internalType": "address",
          "name": "_admin",
          "type": "address"
        }
      ],
      "payable": false,
      "stateMutability": "nonpayable",
      "type": "constructor"
    },
    {
      "anonymous": false,
      "inputs": [
        {
          "indexed": true,
          "internalType": "address",
          "name": "token0",
          "type": "address"
        },
        {
          "indexed": true,
          "internalType": "address",
          "name": "token1",
          "type": "address"
        },
        {
          "indexed": false,
          "internalType": "address",
          "name": "pair",
          "type": "address"
        },
        {
          "indexed": false,
          "internalType": "uint256",
          "name": "pid",
          "type": "uint256"
        }
      ],
      "name": "PairCreated",
      "type": "event"
    },
    {
      "anonymous": false,
      "inputs": [
        {
          "indexed": true,
          "internalType": "address",
          "name": "pair",
          "type": "address"
        },
        {
          "indexed": false,
          "internalType": "uint256",
          "name": "feeRate",
          "type": "uint256"
        }
      ],
      "name": "SetFeeRate",
      "type": "event"
    },
    {
      "constant": true,
      "inputs": [],
      "name": "INIT_CODE_PAIR_HASH",
      "outputs": [
        {
          "internalType": "bytes32",
          "name": "",
          "type": "bytes32"
        }
      ],
      "payable": false,
      "stateMutability": "view",
      "type": "function"
    },
    {
      "constant": true,
      "inputs": [],
      "name": "admin",
      "outputs": [
        {
          "internalType": "address",
          "name": "",
          "type": "address"
        }
      ],
      "payable": false,
      "stateMutability": "view",
      "type": "function"
    },
    {
      "constant": true,
      "inputs": [
        {
          "internalType": "uint256",
          "name": "",
          "type": "uint256"
        }
      ],
      "name": "allPairs",
      "outputs": [
        {
          "internalType": "address",
          "name": "",
          "type": "address"
        }
      ],
      "payable": false,
      "stateMutability": "view",
      "type": "function"
    },
    {
      "constant": true,
      "inputs": [],
      "name": "allPairsLength",
      "outputs": [
        {
          "internalType": "uint256",
          "name": "",
          "type": "uint256"
        }
      ],
      "payable": false,
      "stateMutability": "view",
      "type": "function"
    },
    {
      "constant": false,
      "inputs": [
        {
          "internalType": "address",
          "name": "tokenA",
          "type": "address"
        },
        {
          "internalType": "address",
          "name": "tokenB",
          "type": "address"
        }
      ],
      "name": "createPair",
      "outputs": [
        {
          "internalType": "address",
          "name": "pair",
          "type": "address"
        }
      ],
      "payable": false,
      "stateMutability": "nonpayable",
      "type": "function"
    },
    {
      "constant": true,
      "inputs": [],
      "name": "feeTo",
      "outputs": [
        {
          "internalType": "address",
          "name": "",
          "type": "address"
        }
      ],
      "payable": false,
      "stateMutability": "view",
      "type": "function"
    },
    {
      "constant": true,
      "inputs": [
        {
          "internalType": "address",
          "name": "",
          "type": "address"
        }
      ],
      "name": "getFeeRate",
      "outputs": [
        {
          "internalType": "uint256",
          "name": "",
          "type": "uint256"
        }
      ],
      "payable": false,
      "stateMutability": "view",
      "type": "function"
    },
    {
      "constant": true,
      "inputs": [
        {
          "internalType": "address",
          "name": "",
          "type": "address"
        },
        {
          "internalType": "address",
          "name": "",
          "type": "address"
        }
      ],
      "name": "getPair",
      "outputs": [
        {
          "internalType": "address",
          "name": "",
          "type": "address"
        }
      ],
      "payable": false,
      "stateMutability": "view",
      "type": "function"
    },
    {
      "constant": false,
      "inputs": [
        {
          "internalType": "address",
          "name": "_admin",
          "type": "address"
        }
      ],
      "name": "setAdmin",
      "outputs": [],
      "payable": false,
      "stateMutability": "nonpayable",
      "type": "function"
    },
    {
      "constant": false,
      "inputs": [
        {
          "internalType": "address",
          "name": "pair",
          "type": "address"
        },
        {
          "internalType": "uint256",
          "name": "_feeRate",
          "type": "uint256"
        }
      ],
      "name": "setFeeRate",
      "outputs": [],
      "payable": false,
      "stateMutability": "nonpayable",
      "type": "function"
    },
    {
      "constant": false,
      "inputs": [
        {
          "internalType": "address",
          "name": "_feeTo",
          "type": "address"
        }
      ],
      "name": "setFeeTo",
      "outputs": [],
      "payable": false,
      "stateMutability": "nonpayable",
      "type": "function"
    },
    {
      "constant": true,
      "inputs": [],
      "name": "state",
      "outputs": [
        {
          "internalType": "enum INoahFactory.State",
          "name": "",
          "type": "uint8"
        }
      ],
      "payable": false,
      "stateMutability": "view",
      "type": "function"
    },
    {
      "constant": false,
      "inputs": [],
      "name": "toggleState",
      "outputs": [],
      "payable": false,
      "stateMutability": "nonpayable",
      "type": "function"
    }
  ],
  "transactionHash": "0xb00fed23aac53cb8c80dbb2d52cbdf883e789c7215cb7cbcdb05e0ffc6ee7790",
  "args": [
    "0xe4D68a77714D9D388d8233bee18d578559950cF5"
  ],
  "numDeployments": 1,
  "solcInputHash": "504901bdb1218e0071a15c195ab9918d",
  "bytecode": "0x608060405234801561001057600080fd5b50604051613f32380380613f328339818101604052602081101561003357600080fd5b5051600180546001600160a01b0319166001600160a01b0383161781556005805460ff19168280021790555050613ec38061006f6000396000f3fe608060405234801561001057600080fd5b50600436106100df5760003560e01c8063942dc5731161008c578063d37e510411610066578063d37e51041461025c578063e6a4390514610264578063f46901ed1461029f578063f851a440146102d2576100df565b8063942dc573146101bc578063c19d93fb146101f5578063c9c6539614610221576100df565b80635855a25a116100bd5780635855a25a1461014c578063704b6c02146101545780638198edbf14610189576100df565b8063017e7e58146100e45780631e3dd18b14610115578063574f2ba314610132575b600080fd5b6100ec6102da565b6040805173ffffffffffffffffffffffffffffffffffffffff9092168252519081900360200190f35b6100ec6004803603602081101561012b57600080fd5b50356102f6565b61013a61032a565b60408051918252519081900360200190f35b61013a610330565b6101876004803603602081101561016a57600080fd5b503573ffffffffffffffffffffffffffffffffffffffff166103e1565b005b61013a6004803603602081101561019f57600080fd5b503573ffffffffffffffffffffffffffffffffffffffff16610530565b610187600480360360408110156101d257600080fd5b5073ffffffffffffffffffffffffffffffffffffffff8135169060200135610542565b6101fd610699565b6040518082600181111561020d57fe5b60ff16815260200191505060405180910390f35b6100ec6004803603604081101561023757600080fd5b5073ffffffffffffffffffffffffffffffffffffffff813581169160200135166106a2565b610187610aff565b6100ec6004803603604081101561027a57600080fd5b5073ffffffffffffffffffffffffffffffffffffffff81358116916020013516610bf9565b610187600480360360208110156102b557600080fd5b503573ffffffffffffffffffffffffffffffffffffffff16610c2c565b6100ec610cf9565b60005473ffffffffffffffffffffffffffffffffffffffff1681565b6004818154811061030357fe5b60009182526020909120015473ffffffffffffffffffffffffffffffffffffffff16905081565b60045490565b60405161033f60208201610d15565b6020820181038252601f19601f820116604052506040516020018082805190602001908083835b602083106103a357805182527fffffffffffffffffffffffffffffffffffffffffffffffffffffffffffffffe09092019160209182019101610366565b6001836020036101000a0380198251168184511680821785525050505050509050019150506040516020818303038152906040528051906020012081565b73ffffffffffffffffffffffffffffffffffffffff811661046357604080517f08c379a000000000000000000000000000000000000000000000000000000000815260206004820152601260248201527f4e6f61683a205a45524f5f414444524553530000000000000000000000000000604482015290519081900360640190fd5b60015473ffffffffffffffffffffffffffffffffffffffff1633146104e957604080517f08c379a000000000000000000000000000000000000000000000000000000000815260206004820152600f60248201527f4e6f61683a20464f5242494444454e0000000000000000000000000000000000604482015290519081900360640190fd5b600180547fffffffffffffffffffffffff00000000000000000000000000000000000000001673ffffffffffffffffffffffffffffffffffffffff92909216919091179055565b60036020526000908152604090205481565b60015473ffffffffffffffffffffffffffffffffffffffff1633146105c857604080517f08c379a000000000000000000000000000000000000000000000000000000000815260206004820152600f60248201527f4e6f61683a20464f5242494444454e0000000000000000000000000000000000604482015290519081900360640190fd5b606481111561063857604080517f08c379a000000000000000000000000000000000000000000000000000000000815260206004820152601560248201527f4e6f61683a204645455f52454154455f4c494d49540000000000000000000000604482015290519081900360640190fd5b73ffffffffffffffffffffffffffffffffffffffff8216600081815260036020908152604091829020849055815184815291517fcfb4ca721b9a64dcc3626a15f4a4e53a6b1edd2a79e24527ac117aa8d9f1e4dd9281900390910190a25050565b60055460ff1681565b60008173ffffffffffffffffffffffffffffffffffffffff168373ffffffffffffffffffffffffffffffffffffffff16141561073f57604080517f08c379a000000000000000000000000000000000000000000000000000000000815260206004820152601960248201527f4e6f61683a204944454e544943414c5f41444452455353455300000000000000604482015290519081900360640190fd5b6000808373ffffffffffffffffffffffffffffffffffffffff168573ffffffffffffffffffffffffffffffffffffffff161061077c57838561077f565b84845b909250905073ffffffffffffffffffffffffffffffffffffffff821661080657604080517f08c379a000000000000000000000000000000000000000000000000000000000815260206004820152601260248201527f4e6f61683a205a45524f5f414444524553530000000000000000000000000000604482015290519081900360640190fd5b73ffffffffffffffffffffffffffffffffffffffff8281166000908152600260209081526040808320858516845290915290205416156108a757604080517f08c379a000000000000000000000000000000000000000000000000000000000815260206004820152601160248201527f4e6f61683a20504149525f455849535453000000000000000000000000000000604482015290519081900360640190fd5b6060604051806020016108b990610d15565b6020820181038252601f19601f82011660405250905060008383604051602001808373ffffffffffffffffffffffffffffffffffffffff1673ffffffffffffffffffffffffffffffffffffffff1660601b81526014018273ffffffffffffffffffffffffffffffffffffffff1673ffffffffffffffffffffffffffffffffffffffff1660601b815260140192505050604051602081830303815290604052805190602001209050808251602084016000f5604080517f485cc95500000000000000000000000000000000000000000000000000000000815273ffffffffffffffffffffffffffffffffffffffff8781166004830152868116602483015291519297509087169163485cc9559160448082019260009290919082900301818387803b1580156109e657600080fd5b505af11580156109fa573d6000803e3d6000fd5b50505073ffffffffffffffffffffffffffffffffffffffff80861660008181526002602081815260408084208a87168086529083528185208054978e167fffffffffffffffffffffffff0000000000000000000000000000000000000000988916811790915593835281852086865283528185208054881685179055600480546001810182557f8a35acfbc15ff81a39ae7d344fd709f28e8600b4aa8c65c6b64bfe7fe36bd19b01805490981685179097558385526003835293819020601e90559454855192835290820152835191945091927f0d3648bd0f6ba80134a33ba9275ac585d9d315f0ad8355cddefde31afa28d0e9928290030190a35050505092915050565b60015473ffffffffffffffffffffffffffffffffffffffff163314610b8557604080517f08c379a000000000000000000000000000000000000000000000000000000000815260206004820152600f60248201527f4e6f61683a20464f5242494444454e0000000000000000000000000000000000604482015290519081900360640190fd5b600160055460ff166001811115610b9857fe5b1415610bcb57600580547fffffffffffffffffffffffffffffffffffffffffffffffffffffffffffffff00169055610bf7565b600580547fffffffffffffffffffffffffffffffffffffffffffffffffffffffffffffff001660011790555b565b600260209081526000928352604080842090915290825290205473ffffffffffffffffffffffffffffffffffffffff1681565b60015473ffffffffffffffffffffffffffffffffffffffff163314610cb257604080517f08c379a000000000000000000000000000000000000000000000000000000000815260206004820152600f60248201527f4e6f61683a20464f5242494444454e0000000000000000000000000000000000604482015290519081900360640190fd5b600080547fffffffffffffffffffffffff00000000000000000000000000000000000000001673ffffffffffffffffffffffffffffffffffffffff92909216919091179055565b60015473ffffffffffffffffffffffffffffffffffffffff1681565b61316c80610d238339019056fe60806040526001600c5534801561001557600080fd5b50604051469080605261311a823960408051918290036052018220828201825260088352674e6f6168204c507360c01b6020938401528151808301835260018152603160f81b908401528151808401919091527fe7677cc323ad0d288cca1ec3cf30231ca91d8ff3e3acab8f1b1eae4675d413de818301527fc89efdaa54c0f20c7adf612882df0950f5a951637e0307cdcb4c672f298b8bc6606082015260808101949094523060a0808601919091528151808603909101815260c09094019052825192019190912060035550600580546001600160a01b03191633179055613017806101036000396000f3fe608060405234801561001057600080fd5b50600436106101b95760003560e01c80636a627842116100f9578063ba9a7a5611610097578063d21220a711610071578063d21220a7146105da578063d505accf146105e2578063dd62ed3e14610640578063fff6cae91461067b576101b9565b8063ba9a7a5614610597578063bc25cf771461059f578063c45a0155146105d2576101b9565b80637ecebe00116100d35780637ecebe00146104d757806389afcb441461050a57806395d89b4114610556578063a9059cbb1461055e576101b9565b80636a6278421461046957806370a082311461049c5780637464fc3d146104cf576101b9565b806323b872dd116101665780633644e515116101405780633644e51514610416578063485cc9551461041e5780635909c0d5146104595780635a3d549314610461576101b9565b806323b872dd146103ad57806330adf81f146103f0578063313ce567146103f8576101b9565b8063095ea7b311610197578063095ea7b3146103155780630dfe16811461036257806318160ddd14610393576101b9565b8063022c0d9f146101be57806306fdde03146102595780630902f1ac146102d6575b600080fd5b610257600480360360808110156101d457600080fd5b81359160208101359173ffffffffffffffffffffffffffffffffffffffff604083013516919081019060808101606082013564010000000081111561021857600080fd5b82018360208201111561022a57600080fd5b8035906020019184600183028401116401000000008311171561024c57600080fd5b509092509050610683565b005b610261610f47565b6040805160208082528351818301528351919283929083019185019080838360005b8381101561029b578181015183820152602001610283565b50505050905090810190601f1680156102c85780820380516001836020036101000a031916815260200191505b509250505060405180910390f35b6102de610f80565b604080516dffffffffffffffffffffffffffff948516815292909316602083015263ffffffff168183015290519081900360600190f35b61034e6004803603604081101561032b57600080fd5b5073ffffffffffffffffffffffffffffffffffffffff8135169060200135610fd5565b604080519115158252519081900360200190f35b61036a610fec565b6040805173ffffffffffffffffffffffffffffffffffffffff9092168252519081900360200190f35b61039b611008565b60408051918252519081900360200190f35b61034e600480360360608110156103c357600080fd5b5073ffffffffffffffffffffffffffffffffffffffff81358116916020810135909116906040013561100e565b61039b6110ed565b610400611111565b6040805160ff9092168252519081900360200190f35b61039b611116565b6102576004803603604081101561043457600080fd5b5073ffffffffffffffffffffffffffffffffffffffff8135811691602001351661111c565b61039b6111f5565b61039b6111fb565b61039b6004803603602081101561047f57600080fd5b503573ffffffffffffffffffffffffffffffffffffffff16611201565b61039b600480360360208110156104b257600080fd5b503573ffffffffffffffffffffffffffffffffffffffff16611701565b61039b611713565b61039b600480360360208110156104ed57600080fd5b503573ffffffffffffffffffffffffffffffffffffffff16611719565b61053d6004803603602081101561052057600080fd5b503573ffffffffffffffffffffffffffffffffffffffff1661172b565b6040805192835260208301919091528051918290030190f35b610261611cf6565b61034e6004803603604081101561057457600080fd5b5073ffffffffffffffffffffffffffffffffffffffff8135169060200135611d2f565b61039b611d3c565b610257600480360360208110156105b557600080fd5b503573ffffffffffffffffffffffffffffffffffffffff16611d42565b61036a611f38565b61036a611f54565b610257600480360360e08110156105f857600080fd5b5073ffffffffffffffffffffffffffffffffffffffff813581169160208101359091169060408101359060608101359060ff6080820135169060a08101359060c00135611f70565b61039b6004803603604081101561065657600080fd5b5073ffffffffffffffffffffffffffffffffffffffff8135811691602001351661223c565b610257612259565b600c546001146106f457604080517f08c379a000000000000000000000000000000000000000000000000000000000815260206004820152600c60248201527f4e6f61683a204c4f434b45440000000000000000000000000000000000000000604482015290519081900360640190fd5b6000600c55600554604080517fc19d93fb000000000000000000000000000000000000000000000000000000008152905160019273ffffffffffffffffffffffffffffffffffffffff169163c19d93fb916004808301926020929190829003018186803b15801561076457600080fd5b505afa158015610778573d6000803e3d6000fd5b505050506040513d602081101561078e57600080fd5b5051600181111561079b57fe5b1461080757604080517f08c379a000000000000000000000000000000000000000000000000000000000815260206004820152600d60248201527f4e6f61683a2050454e44494e4700000000000000000000000000000000000000604482015290519081900360640190fd5b60008511806108165750600084115b61088157604080517f08c379a000000000000000000000000000000000000000000000000000000000815260206004820181905260248201527f4e6f61683a20494e53554646494349454e545f4f55545055545f414d4f554e54604482015290519081900360640190fd5b60008061088c610f80565b5091509150816dffffffffffffffffffffffffffff16871080156108bf5750806dffffffffffffffffffffffffffff1686105b61092a57604080517f08c379a000000000000000000000000000000000000000000000000000000000815260206004820152601c60248201527f4e6f61683a20494e53554646494349454e545f4c495155494449545900000000604482015290519081900360640190fd5b600654600754600091829173ffffffffffffffffffffffffffffffffffffffff91821691908116908916821480159061098f57508073ffffffffffffffffffffffffffffffffffffffff168973ffffffffffffffffffffffffffffffffffffffff1614155b6109fa57604080517f08c379a000000000000000000000000000000000000000000000000000000000815260206004820152601060248201527f4e6f61683a20494e56414c49445f544f00000000000000000000000000000000604482015290519081900360640190fd5b8a15610a0b57610a0b828a8d61243f565b8915610a1c57610a1c818a8c61243f565b8615610afe578873ffffffffffffffffffffffffffffffffffffffff166365380489338d8d8c8c6040518663ffffffff1660e01b8152600401808673ffffffffffffffffffffffffffffffffffffffff1673ffffffffffffffffffffffffffffffffffffffff168152602001858152602001848152602001806020018281038252848482818152602001925080828437600081840152601f19601f8201169050808301925050509650505050505050600060405180830381600087803b158015610ae557600080fd5b505af1158015610af9573d6000803e3d6000fd5b505050505b604080517f70a08231000000000000000000000000000000000000000000000000000000008152306004820152905173ffffffffffffffffffffffffffffffffffffffff8416916370a08231916024808301926020929190829003018186803b158015610b6a57600080fd5b505afa158015610b7e573d6000803e3d6000fd5b505050506040513d6020811015610b9457600080fd5b5051604080517f70a08231000000000000000000000000000000000000000000000000000000008152306004820152905191955073ffffffffffffffffffffffffffffffffffffffff8316916370a0823191602480820192602092909190829003018186803b158015610c0657600080fd5b505afa158015610c1a573d6000803e3d6000fd5b505050506040513d6020811015610c3057600080fd5b5051925060009150506dffffffffffffffffffffffffffff85168a90038311610c5a576000610c70565b89856dffffffffffffffffffffffffffff160383035b9050600089856dffffffffffffffffffffffffffff16038311610c94576000610caa565b89856dffffffffffffffffffffffffffff160383035b90506000821180610cbb5750600081115b610d2657604080517f08c379a000000000000000000000000000000000000000000000000000000000815260206004820152601f60248201527f4e6f61683a20494e53554646494349454e545f494e5055545f414d4f554e5400604482015290519081900360640190fd5b600554604080517f8198edbf000000000000000000000000000000000000000000000000000000008152306004820152905160009273ffffffffffffffffffffffffffffffffffffffff1691638198edbf916024808301926020929190829003018186803b158015610d9757600080fd5b505afa158015610dab573d6000803e3d6000fd5b505050506040513d6020811015610dc157600080fd5b505190506000610df8610dda858463ffffffff61264c16565b610dec8861271063ffffffff61264c16565b9063ffffffff6126d216565b90506000610e0f610dda858563ffffffff61264c16565b9050610e486305f5e100610e3c6dffffffffffffffffffffffffffff8c8116908c1663ffffffff61264c16565b9063ffffffff61264c16565b610e58838363ffffffff61264c16565b1015610ec557604080517f08c379a000000000000000000000000000000000000000000000000000000000815260206004820152600760248201527f4e6f61683a204b00000000000000000000000000000000000000000000000000604482015290519081900360640190fd5b505050610ed484848888612744565b60408051838152602081018390528082018d9052606081018c9052905173ffffffffffffffffffffffffffffffffffffffff8b169133917fd78ad95fa46c994b6551d0da85fc275fe613ce37657fb8d5e3d130840159d8229181900360800190a350506001600c55505050505050505050565b6040518060400160405280600881526020017f4e6f6168204c507300000000000000000000000000000000000000000000000081525081565b6008546dffffffffffffffffffffffffffff808216926e0100000000000000000000000000008304909116917c0100000000000000000000000000000000000000000000000000000000900463ffffffff1690565b6000610fe2338484612a0a565b5060015b92915050565b60065473ffffffffffffffffffffffffffffffffffffffff1681565b60005481565b73ffffffffffffffffffffffffffffffffffffffff831660009081526002602090815260408083203384529091528120547fffffffffffffffffffffffffffffffffffffffffffffffffffffffffffffffff146110d85773ffffffffffffffffffffffffffffffffffffffff841660009081526002602090815260408083203384529091529020546110a6908363ffffffff6126d216565b73ffffffffffffffffffffffffffffffffffffffff851660009081526002602090815260408083203384529091529020555b6110e3848484612a79565b5060019392505050565b7f6e71edae12b1b97f4d1f60370fef10105fa2faae0126114a169c64845d6126c981565b601281565b60035481565b60055473ffffffffffffffffffffffffffffffffffffffff1633146111a257604080517f08c379a000000000000000000000000000000000000000000000000000000000815260206004820152600f60248201527f4e6f61683a20464f5242494444454e0000000000000000000000000000000000604482015290519081900360640190fd5b6006805473ffffffffffffffffffffffffffffffffffffffff9384167fffffffffffffffffffffffff00000000000000000000000000000000000000009182161790915560078054929093169116179055565b60095481565b600a5481565b6000600c5460011461127457604080517f08c379a000000000000000000000000000000000000000000000000000000000815260206004820152600c60248201527f4e6f61683a204c4f434b45440000000000000000000000000000000000000000604482015290519081900360640190fd5b6000600c55600554604080517fc19d93fb000000000000000000000000000000000000000000000000000000008152905160019273ffffffffffffffffffffffffffffffffffffffff169163c19d93fb916004808301926020929190829003018186803b1580156112e457600080fd5b505afa1580156112f8573d6000803e3d6000fd5b505050506040513d602081101561130e57600080fd5b5051600181111561131b57fe5b1461138757604080517f08c379a000000000000000000000000000000000000000000000000000000000815260206004820152600d60248201527f4e6f61683a2050454e44494e4700000000000000000000000000000000000000604482015290519081900360640190fd5b600080611392610f80565b50600654604080517f70a08231000000000000000000000000000000000000000000000000000000008152306004820152905193955091935060009273ffffffffffffffffffffffffffffffffffffffff909116916370a08231916024808301926020929190829003018186803b15801561140c57600080fd5b505afa158015611420573d6000803e3d6000fd5b505050506040513d602081101561143657600080fd5b5051600754604080517f70a08231000000000000000000000000000000000000000000000000000000008152306004820152905192935060009273ffffffffffffffffffffffffffffffffffffffff909216916370a0823191602480820192602092909190829003018186803b1580156114af57600080fd5b505afa1580156114c3573d6000803e3d6000fd5b505050506040513d60208110156114d957600080fd5b5051905060006114ff836dffffffffffffffffffffffffffff871663ffffffff6126d216565b90506000611523836dffffffffffffffffffffffffffff871663ffffffff6126d216565b905060006115318787612b5a565b6000549091508061156e5761155a6103e8610dec611555878763ffffffff61264c16565b612ce6565b985061156960006103e8612d38565b6115cb565b6115c86dffffffffffffffffffffffffffff8916611592868463ffffffff61264c16565b8161159957fe5b046dffffffffffffffffffffffffffff89166115bb868563ffffffff61264c16565b816115c257fe5b04612de8565b98505b60008911611624576040517f08c379a0000000000000000000000000000000000000000000000000000000008152600401808060200182810382526023815260200180612fc06023913960400191505060405180910390fd5b61162e8a8a612d38565b61163a86868a8a612744565b811561167c57600854611678906dffffffffffffffffffffffffffff808216916e01000000000000000000000000000090041663ffffffff61264c16565b600b555b73ffffffffffffffffffffffffffffffffffffffff8a16600090815260016020908152604091829020548251878152918201869052818301819052606082018c9052915133917f94c792774c59479f7bd68442f3af3691c02123a5aabee8b6f9116d8af8aa6669919081900360800190a250506001600c555095979650505050505050565b60016020526000908152604090205481565b600b5481565b60046020526000908152604090205481565b600080600c5460011461179f57604080517f08c379a000000000000000000000000000000000000000000000000000000000815260206004820152600c60248201527f4e6f61683a204c4f434b45440000000000000000000000000000000000000000604482015290519081900360640190fd5b6000600c55600554604080517fc19d93fb000000000000000000000000000000000000000000000000000000008152905160019273ffffffffffffffffffffffffffffffffffffffff169163c19d93fb916004808301926020929190829003018186803b15801561180f57600080fd5b505afa158015611823573d6000803e3d6000fd5b505050506040513d602081101561183957600080fd5b5051600181111561184657fe5b146118b257604080517f08c379a000000000000000000000000000000000000000000000000000000000815260206004820152600d60248201527f4e6f61683a2050454e44494e4700000000000000000000000000000000000000604482015290519081900360640190fd5b6000806118bd610f80565b50600654600754604080517f70a08231000000000000000000000000000000000000000000000000000000008152306004820152905194965092945073ffffffffffffffffffffffffffffffffffffffff9182169391169160009184916370a08231916024808301926020929190829003018186803b15801561193f57600080fd5b505afa158015611953573d6000803e3d6000fd5b505050506040513d602081101561196957600080fd5b5051604080517f70a08231000000000000000000000000000000000000000000000000000000008152306004820152905191925060009173ffffffffffffffffffffffffffffffffffffffff8516916370a08231916024808301926020929190829003018186803b1580156119dd57600080fd5b505afa1580156119f1573d6000803e3d6000fd5b505050506040513d6020811015611a0757600080fd5b505130600090815260016020526040812054919250611a268888612b5a565b60005490915080611a3d848763ffffffff61264c16565b81611a4457fe5b049a5080611a58848663ffffffff61264c16565b81611a5f57fe5b04995060008b118015611a72575060008a115b611ac7576040517f08c379a0000000000000000000000000000000000000000000000000000000008152600401808060200182810382526023815260200180612f9d6023913960400191505060405180910390fd5b611ad13084612e00565b611adc878d8d61243f565b611ae7868d8c61243f565b604080517f70a08231000000000000000000000000000000000000000000000000000000008152306004820152905173ffffffffffffffffffffffffffffffffffffffff8916916370a08231916024808301926020929190829003018186803b158015611b5357600080fd5b505afa158015611b67573d6000803e3d6000fd5b505050506040513d6020811015611b7d57600080fd5b5051604080517f70a08231000000000000000000000000000000000000000000000000000000008152306004820152905191965073ffffffffffffffffffffffffffffffffffffffff8816916370a0823191602480820192602092909190829003018186803b158015611bef57600080fd5b505afa158015611c03573d6000803e3d6000fd5b505050506040513d6020811015611c1957600080fd5b50519350611c2985858b8b612744565b8115611c6b57600854611c67906dffffffffffffffffffffffffffff808216916e01000000000000000000000000000090041663ffffffff61264c16565b600b555b73ffffffffffffffffffffffffffffffffffffffff8c166000818152600160209081526040918290205482518f81529182018e905281830181905260608201879052915191929133917f5bebe2aa1be351538a8cbfaf86ec29b94d0230fc94682655767ed405ce4befbb919081900360800190a3505050505050505050506001600c81905550915091565b6040518060400160405280600781526020017f4e6f61682d4c500000000000000000000000000000000000000000000000000081525081565b6000610fe2338484612a79565b6103e881565b600c54600114611db357604080517f08c379a000000000000000000000000000000000000000000000000000000000815260206004820152600c60248201527f4e6f61683a204c4f434b45440000000000000000000000000000000000000000604482015290519081900360640190fd5b6000600c55600654600754600854604080517f70a08231000000000000000000000000000000000000000000000000000000008152306004820152905173ffffffffffffffffffffffffffffffffffffffff9485169490931692611e8f9285928792611e8a926dffffffffffffffffffffffffffff169185916370a0823191602480820192602092909190829003018186803b158015611e5257600080fd5b505afa158015611e66573d6000803e3d6000fd5b505050506040513d6020811015611e7c57600080fd5b50519063ffffffff6126d216565b61243f565b600854604080517f70a082310000000000000000000000000000000000000000000000000000000081523060048201529051611f2e9284928792611e8a926e01000000000000000000000000000090046dffffffffffffffffffffffffffff169173ffffffffffffffffffffffffffffffffffffffff8616916370a0823191602480820192602092909190829003018186803b158015611e5257600080fd5b50506001600c5550565b60055473ffffffffffffffffffffffffffffffffffffffff1681565b60075473ffffffffffffffffffffffffffffffffffffffff1681565b42841015611fdf57604080517f08c379a000000000000000000000000000000000000000000000000000000000815260206004820152600d60248201527f4e6f61683a204558504952454400000000000000000000000000000000000000604482015290519081900360640190fd5b60035473ffffffffffffffffffffffffffffffffffffffff80891660008181526004602090815260408083208054600180820190925582517f6e71edae12b1b97f4d1f60370fef10105fa2faae0126114a169c64845d6126c98186015280840196909652958d166060860152608085018c905260a085019590955260c08085018b90528151808603909101815260e0850182528051908301207f19010000000000000000000000000000000000000000000000000000000000006101008601526101028501969096526101228085019690965280518085039096018652610142840180825286519683019690962095839052610162840180825286905260ff89166101828501526101a284018890526101c28401879052519193926101e2808201937fffffffffffffffffffffffffffffffffffffffffffffffffffffffffffffffe081019281900390910190855afa158015612140573d6000803e3d6000fd5b50506040517fffffffffffffffffffffffffffffffffffffffffffffffffffffffffffffffe0015191505073ffffffffffffffffffffffffffffffffffffffff8116158015906121bb57508873ffffffffffffffffffffffffffffffffffffffff168173ffffffffffffffffffffffffffffffffffffffff16145b61222657604080517f08c379a000000000000000000000000000000000000000000000000000000000815260206004820152601760248201527f4e6f61683a20494e56414c49445f5349474e4154555245000000000000000000604482015290519081900360640190fd5b612231898989612a0a565b505050505050505050565b600260209081526000928352604080842090915290825290205481565b600c546001146122ca57604080517f08c379a000000000000000000000000000000000000000000000000000000000815260206004820152600c60248201527f4e6f61683a204c4f434b45440000000000000000000000000000000000000000604482015290519081900360640190fd5b6000600c55600654604080517f70a0823100000000000000000000000000000000000000000000000000000000815230600482015290516124389273ffffffffffffffffffffffffffffffffffffffff16916370a08231916024808301926020929190829003018186803b15801561234157600080fd5b505afa158015612355573d6000803e3d6000fd5b505050506040513d602081101561236b57600080fd5b5051600754604080517f70a08231000000000000000000000000000000000000000000000000000000008152306004820152905173ffffffffffffffffffffffffffffffffffffffff909216916370a0823191602480820192602092909190829003018186803b1580156123de57600080fd5b505afa1580156123f2573d6000803e3d6000fd5b505050506040513d602081101561240857600080fd5b50516008546dffffffffffffffffffffffffffff808216916e010000000000000000000000000000900416612744565b6001600c55565b604080518082018252601981527f7472616e7366657228616464726573732c75696e743235362900000000000000602091820152815173ffffffffffffffffffffffffffffffffffffffff85811660248301526044808301869052845180840390910181526064909201845291810180517bffffffffffffffffffffffffffffffffffffffffffffffffffffffff167fa9059cbb000000000000000000000000000000000000000000000000000000001781529251815160009460609489169392918291908083835b6020831061254557805182527fffffffffffffffffffffffffffffffffffffffffffffffffffffffffffffffe09092019160209182019101612508565b6001836020036101000a0380198251168184511680821785525050505050509050019150506000604051808303816000865af19150503d80600081146125a7576040519150601f19603f3d011682016040523d82523d6000602084013e6125ac565b606091505b50915091508180156125da5750805115806125da57508080602001905160208110156125d757600080fd5b50515b61264557604080517f08c379a000000000000000000000000000000000000000000000000000000000815260206004820152601560248201527f4e6f61683a205452414e534645525f4641494c45440000000000000000000000604482015290519081900360640190fd5b5050505050565b60008115806126675750508082028282828161266457fe5b04145b610fe657604080517f08c379a000000000000000000000000000000000000000000000000000000000815260206004820152601460248201527f64732d6d6174682d6d756c2d6f766572666c6f77000000000000000000000000604482015290519081900360640190fd5b80820382811115610fe657604080517f08c379a000000000000000000000000000000000000000000000000000000000815260206004820152601560248201527f64732d6d6174682d7375622d756e646572666c6f770000000000000000000000604482015290519081900360640190fd5b6dffffffffffffffffffffffffffff841180159061277057506dffffffffffffffffffffffffffff8311155b6127db57604080517f08c379a000000000000000000000000000000000000000000000000000000000815260206004820152600e60248201527f4e6f61683a204f564552464c4f57000000000000000000000000000000000000604482015290519081900360640190fd5b60085463ffffffff428116917c01000000000000000000000000000000000000000000000000000000009004811682039081161580159061282b57506dffffffffffffffffffffffffffff841615155b801561284657506dffffffffffffffffffffffffffff831615155b156128f6578063ffffffff166128898561285f86612ec5565b7bffffffffffffffffffffffffffffffffffffffffffffffffffffffff169063ffffffff612ee916565b600980547bffffffffffffffffffffffffffffffffffffffffffffffffffffffff929092169290920201905563ffffffff81166128c98461285f87612ec5565b600a80547bffffffffffffffffffffffffffffffffffffffffffffffffffffffff92909216929092020190555b600880547fffffffffffffffffffffffffffffffffffff0000000000000000000000000000166dffffffffffffffffffffffffffff888116919091177fffffffff0000000000000000000000000000ffffffffffffffffffffffffffff166e0100000000000000000000000000008883168102919091177bffffffffffffffffffffffffffffffffffffffffffffffffffffffff167c010000000000000000000000000000000000000000000000000000000063ffffffff87160217928390556000546040805185851681529290940490921660208201528083019190915290517f17be3acebd510daa18778e1ee1fbaf88237b124dc0803c3be2fd4f99f3e69d33916060908290030190a1505050505050565b73ffffffffffffffffffffffffffffffffffffffff808416600081815260026020908152604080832094871680845294825291829020859055815185815291517f8c5be1e5ebec7d5bd14f71427d1e84f3dd0314c0f7b2291e5b200ac8c7c3b9259281900390910190a3505050565b73ffffffffffffffffffffffffffffffffffffffff8316600090815260016020526040902054612aaf908263ffffffff6126d216565b73ffffffffffffffffffffffffffffffffffffffff8085166000908152600160205260408082209390935590841681522054612af1908263ffffffff612f2a16565b73ffffffffffffffffffffffffffffffffffffffff80841660008181526001602090815260409182902094909455805185815290519193928716927fddf252ad1be2c89b69c2b068fc378daa952ba7f163c4a11628f55a4df523b3ef92918290030190a3505050565b600080600560009054906101000a900473ffffffffffffffffffffffffffffffffffffffff1673ffffffffffffffffffffffffffffffffffffffff1663017e7e586040518163ffffffff1660e01b815260040160206040518083038186803b158015612bc557600080fd5b505afa158015612bd9573d6000803e3d6000fd5b505050506040513d6020811015612bef57600080fd5b5051600b5473ffffffffffffffffffffffffffffffffffffffff8216158015945091925090612cd2578015612ccd576000612c466115556dffffffffffffffffffffffffffff88811690881663ffffffff61264c16565b90506000612c5383612ce6565b905080821115612cca576000612c81612c72848463ffffffff6126d216565b6000549063ffffffff61264c16565b90506000612ca683612c9a86600263ffffffff61264c16565b9063ffffffff612f2a16565b90506000818381612cb357fe5b0490508015612cc657612cc68782612d38565b5050505b50505b612cde565b8015612cde576000600b555b505092915050565b60006003821115612d29575080600160028204015b81811015612d2357809150600281828581612d1257fe5b040181612d1b57fe5b049050612cfb565b50612d33565b8115612d33575060015b919050565b600054612d4b908263ffffffff612f2a16565b600090815573ffffffffffffffffffffffffffffffffffffffff8316815260016020526040902054612d83908263ffffffff612f2a16565b73ffffffffffffffffffffffffffffffffffffffff831660008181526001602090815260408083209490945583518581529351929391927fddf252ad1be2c89b69c2b068fc378daa952ba7f163c4a11628f55a4df523b3ef9281900390910190a35050565b6000818310612df75781612df9565b825b9392505050565b73ffffffffffffffffffffffffffffffffffffffff8216600090815260016020526040902054612e36908263ffffffff6126d216565b73ffffffffffffffffffffffffffffffffffffffff831660009081526001602052604081209190915554612e70908263ffffffff6126d216565b600090815560408051838152905173ffffffffffffffffffffffffffffffffffffffff8516917fddf252ad1be2c89b69c2b068fc378daa952ba7f163c4a11628f55a4df523b3ef919081900360200190a35050565b6dffffffffffffffffffffffffffff166e0100000000000000000000000000000290565b60006dffffffffffffffffffffffffffff82167bffffffffffffffffffffffffffffffffffffffffffffffffffffffff841681612f2257fe5b049392505050565b80820182811015610fe657604080517f08c379a000000000000000000000000000000000000000000000000000000000815260206004820152601460248201527f64732d6d6174682d6164642d6f766572666c6f77000000000000000000000000604482015290519081900360640190fdfe4e6f61683a20494e53554646494349454e545f4c49515549444954595f4255524e45444e6f61683a20494e53554646494349454e545f4c49515549444954595f4d494e544544a265627a7a723158207207f748966ca8531fbba01f9dbfeaf39aebbee15bb357cead4a722df751bcf764736f6c63430005100032454950373132446f6d61696e28737472696e67206e616d652c737472696e672076657273696f6e2c75696e7432353620636861696e49642c6164647265737320766572696679696e67436f6e747261637429a265627a7a7231582050f13daa744de1ad051e1122ff005c1a9a4c31f5b4e8cd0398adf682547afef264736f6c63430005100032",
  "devdoc": {
    "methods": {}
  },
  "userdoc": {
    "methods": {}
  },
  "storageLayout": {
    "storage": [
      {
        "astId": 403,
        "contract": "contracts/NoahFactory.sol:NoahFactory",
        "label": "feeTo",
        "offset": 0,
        "slot": "0",
        "type": "t_address"
      },
      {
        "astId": 405,
        "contract": "contracts/NoahFactory.sol:NoahFactory",
        "label": "admin",
        "offset": 0,
        "slot": "1",
        "type": "t_address"
      },
      {
        "astId": 411,
        "contract": "contracts/NoahFactory.sol:NoahFactory",
        "label": "getPair",
        "offset": 0,
        "slot": "2",
        "type": "t_mapping(t_address,t_mapping(t_address,t_address))"
      },
      {
        "astId": 415,
        "contract": "contracts/NoahFactory.sol:NoahFactory",
        "label": "getFeeRate",
        "offset": 0,
        "slot": "3",
        "type": "t_mapping(t_address,t_uint256)"
      },
      {
        "astId": 418,
        "contract": "contracts/NoahFactory.sol:NoahFactory",
        "label": "allPairs",
        "offset": 0,
        "slot": "4",
        "type": "t_array(t_address)dyn_storage"
      },
      {
        "astId": 420,
        "contract": "contracts/NoahFactory.sol:NoahFactory",
        "label": "state",
        "offset": 0,
        "slot": "5",
        "type": "t_enum(State)1962"
      }
    ],
    "types": {
      "t_address": {
        "encoding": "inplace",
        "label": "address",
        "numberOfBytes": "20"
      },
      "t_array(t_address)dyn_storage": {
        "base": "t_address",
        "encoding": "dynamic_array",
        "label": "address[]",
        "numberOfBytes": "32"
      },
      "t_enum(State)1962": {
        "encoding": "inplace",
        "label": "enum INoahFactory.State",
        "numberOfBytes": "1"
      },
      "t_mapping(t_address,t_address)": {
        "encoding": "mapping",
        "key": "t_address",
        "label": "mapping(address => address)",
        "numberOfBytes": "32",
        "value": "t_address"
      },
      "t_mapping(t_address,t_mapping(t_address,t_address))": {
        "encoding": "mapping",
        "key": "t_address",
        "label": "mapping(address => mapping(address => address))",
        "numberOfBytes": "32",
        "value": "t_mapping(t_address,t_address)"
      },
      "t_mapping(t_address,t_uint256)": {
        "encoding": "mapping",
        "key": "t_address",
        "label": "mapping(address => uint256)",
        "numberOfBytes": "32",
        "value": "t_uint256"
      },
      "t_uint256": {
        "encoding": "inplace",
        "label": "uint256",
        "numberOfBytes": "32"
      }
    }
  }
}